{
  "contractName": "PotOfGreed",
  "abi": [
    {
      "inputs": [],
      "payable": false,
      "stateMutability": "nonpayable",
      "type": "constructor"
    },
    {
      "anonymous": false,
      "inputs": [
        {
          "indexed": false,
          "internalType": "string",
          "name": "err",
          "type": "string"
        }
      ],
      "name": "errorEvent",
      "type": "event"
    },
    {
      "constant": true,
      "inputs": [],
      "name": "lastGreed",
      "outputs": [
        {
          "internalType": "uint256",
          "name": "",
          "type": "uint256"
        }
      ],
      "payable": false,
      "stateMutability": "view",
      "type": "function"
    },
    {
      "constant": true,
      "inputs": [],
      "name": "minimumInput",
      "outputs": [
        {
          "internalType": "uint256",
          "name": "",
          "type": "uint256"
        }
      ],
      "payable": false,
      "stateMutability": "view",
      "type": "function"
    },
    {
      "constant": true,
      "inputs": [],
      "name": "pot",
      "outputs": [
        {
          "internalType": "uint256",
          "name": "",
          "type": "uint256"
        }
      ],
      "payable": false,
      "stateMutability": "view",
      "type": "function"
    },
    {
      "constant": false,
      "inputs": [],
      "name": "greed",
      "outputs": [],
      "payable": true,
      "stateMutability": "payable",
      "type": "function"
    },
    {
      "constant": false,
      "inputs": [],
      "name": "destroy",
      "outputs": [],
      "payable": false,
      "stateMutability": "nonpayable",
      "type": "function"
    }
  ],
  "bytecode": "0x6080604052600060015534801561001557600080fd5b50336000806101000a81548173ffffffffffffffffffffffffffffffffffffffff021916908373ffffffffffffffffffffffffffffffffffffffff1602179055506103b0806100656000396000f3fe60806040526004361061004a5760003560e01c80632ffdb1c51461004f5780634ba2363a1461007a57806383197ef0146100a557806387a09224146100bc5780639ad71906146100c6575b600080fd5b34801561005b57600080fd5b506100646100f1565b6040518082815260200191505060405180910390f35b34801561008657600080fd5b5061008f6100f6565b6040518082815260200191505060405180910390f35b3480156100b157600080fd5b506100ba6100fc565b005b6100c46101dc565b005b3480156100d257600080fd5b506100db61024f565b6040518082815260200191505060405180910390f35b600181565b60015481565b6000809054906101000a900473ffffffffffffffffffffffffffffffffffffffff1673ffffffffffffffffffffffffffffffffffffffff163373ffffffffffffffffffffffffffffffffffffffff16146101a0577f94f8f71e1e35b594828465568a17f7b8d6a023d5472ad568a335543fe73636cd60405180806020018281038252602c81526020018061032d602c913960400191505060405180910390a16101da565b6000809054906101000a900473ffffffffffffffffffffffffffffffffffffffff1673ffffffffffffffffffffffffffffffffffffffff16ff5b565b60013411610235576040517f08c379a00000000000000000000000000000000000000000000000000000000081526004018080602001828103825260238152602001806103596023913960400191505060405180910390fd5b3460028190555061024534610255565b61024d610263565b565b60025481565b806001540160018190555050565b6000809054906101000a900473ffffffffffffffffffffffffffffffffffffffff1673ffffffffffffffffffffffffffffffffffffffff163373ffffffffffffffffffffffffffffffffffffffff1614156102c1576102c06102c3565b5b565b6000600a600960015402816102d457fe5b04905080600154036001819055503373ffffffffffffffffffffffffffffffffffffffff166108fc829081150290604051600060405180830381858888f19350505050158015610328573d6000803e3d6000fd5b505056fe4163636573732064656e6965642e20446f206e6f2068617665206f776e6572207065726d697373696f6e732e4e6f7420656e6f756768206d6f6e65792073656e742e204e656564203e203120776569a265627a7a72315820c26b38ebf44e5f5d99c5093a16bc222773b29d802afe2811efdcbf30ab55e52b64736f6c63430005100032",
  "source": "pragma solidity ^0.5.0;\n\ncontract Utility {\n  address payable owner;\n\n  event errorEvent(string err);\n\n  modifier onlyOwner {\n    if (msg.sender != owner) {\n      emit errorEvent(\"Access denied. Do no have owner permissions.\");\n    } else {\n      _;\n    }\n  }\n}\n\ncontract PotOfGreed is Utility {\n  constructor () public {\n    // creator of contract\n    owner = msg.sender;\n  }\n\n  uint256 public pot = 0;\n  uint public constant minimumInput = 1;\n  uint public lastGreed;\n\n  \n  function greed() public payable {\n      require(msg.value > minimumInput, \"Not enough money sent. Need > 1 wei\");\n      lastGreed = msg.value;\n      updatePot(msg.value);\n      roll();\n  }\n  \n  function updatePot(uint value) internal {\n    pot = pot + value;\n  }\n  \n  function roll () internal {\n      if (msg.sender == owner) {\n          payout();\n      }\n  }\n  \n  function payout() internal {\n      uint256 payoutAmt = (pot * 9 / 10);\n      pot = pot - payoutAmt;\n      msg.sender.transfer(payoutAmt);\n  }\n  \n  function destroy () onlyOwner public {\n      selfdestruct(owner);\n  }\n}\n",
  "sourcePath": "/Users/rchacon/code/github/orpheus/ethereum/drizzle-react-tutorial/contracts/PotOfGreed.sol",
  "compiler": {
    "name": "solc",
    "version": "0.5.16+commit.9c3226ce.Emscripten.clang"
  },
  "schemaVersion": "3.3.2",
  "updatedAt": "2020-11-12T22:23:53.051Z",
  "networkType": "ethereum",
  "devdoc": {
    "methods": {}
  },
  "userdoc": {
    "methods": {}
  }
}