{
  "contractName": "PotOfGreed",
  "abi": [
    {
      "inputs": [],
      "payable": false,
      "stateMutability": "nonpayable",
      "type": "constructor"
    },
    {
      "anonymous": false,
      "inputs": [
        {
          "indexed": false,
          "internalType": "string",
          "name": "err",
          "type": "string"
        }
      ],
      "name": "errorEvent",
      "type": "event"
    },
    {
      "constant": true,
      "inputs": [],
      "name": "pot",
      "outputs": [
        {
          "internalType": "uint256",
          "name": "",
          "type": "uint256"
        }
      ],
      "payable": false,
      "stateMutability": "view",
      "type": "function"
    },
    {
      "constant": false,
      "inputs": [
        {
          "internalType": "uint256",
          "name": "value",
          "type": "uint256"
        }
      ],
      "name": "updatePot",
      "outputs": [],
      "payable": false,
      "stateMutability": "nonpayable",
      "type": "function"
    }
  ],
  "bytecode": "0x6080604052600060015534801561001557600080fd5b50336000806101000a81548173ffffffffffffffffffffffffffffffffffffffff021916908373ffffffffffffffffffffffffffffffffffffffff16021790555060c7806100646000396000f3fe6080604052348015600f57600080fd5b506004361060325760003560e01c80634ba2363a146037578063db4dd0b9146053575b600080fd5b603d607e565b6040518082815260200191505060405180910390f35b607c60048036036020811015606757600080fd5b81019080803590602001909291905050506084565b005b60015481565b80600154016001819055505056fea265627a7a72315820c81429505f6461ab331d9ed04bb9d791b06d32da7bdde54b2a99d0411864621c64736f6c63430005100032",
  "source": "pragma solidity ^0.5.0;\n\ncontract Utility {\n  address owner;\n\n  event errorEvent(string err);\n\n  modifier onlyOwner {\n    if (msg.sender != owner) {\n      emit errorEvent(\"Access denied. Do no have owner permissions.\");\n    } else {\n      _;\n    }\n  }\n}\n\ncontract PotOfGreed is Utility {\n  constructor () public {\n    // creator of contract\n    owner = msg.sender;\n  }\n\n  uint public pot = 0;\n\n  function updatePot(uint value) public {\n    pot = pot + value;\n  }\n}\n",
  "sourcePath": "/Users/rchacon/code/github/orpheus/ethereum/drizzle-react-tutorial/contracts/PotOfGreed.sol",
  "compiler": {
    "name": "solc",
    "version": "0.5.16+commit.9c3226ce.Emscripten.clang"
  },
  "schemaVersion": "3.3.2",
  "updatedAt": "2020-11-12T17:02:49.774Z",
  "networkType": "ethereum",
  "devdoc": {
    "methods": {}
  },
  "userdoc": {
    "methods": {}
  }
}